:020000040800F2
:100000000050002095090008B9070008BB07000848
:10001000BD070008BF070008C10700080000000076
:10002000000000000000000000000000C3070008FE
:10003000C507000800000000C7070008C90700083E
:10004000DD090008DD090008DD090008DD090008F8
:10005000DD090008DD090008DD090008DD090008E8
:10006000DD090008DD090008DD090008DD090008D8
:10007000DD090008DD090008DD090008DD090008C8
:10008000DD090008DD090008DD090008DD090008B8
:10009000DD090008DD090008DD090008DD090008A8
:1000A000DD090008DD090008DD090008DD09000898
:1000B000DD090008DD090008DD090008DD09000888
:1000C000DD090008DD090008DD090008DD09000878
:1000D000DD090008DD090008DD090008DD09000868
:1000E000DD090008DD090008DD0900080000000046
:1000F0000000000000000000000000000000000000
:0C01000000000000000000005FF808F1A3
:10010C0000F1340191E838009C46A6464CF8045D99
:10011C0090E8FF0FE54600BD90EC210B704700BF47
:10012C0080EC210B704700BF90EC200B704700BF98
:10013C0080EC200B704700BFD0EC200B704700BF49
:10014C00C0EC200B704700BFF0EC0201F0EC021188
:10015C00F0EC0221F0EC0231F0EC0241F0EC025137
:10016C00F0EC0261F0EC0271F0EC0281F0EC029127
:10017C00F0EC02A1F0EC02B1F0EC02C1F0EC02D117
:10018C00F0EC02E1F0EC02F1704700BFE0EC020190
:10019C00E0EC0211E0EC0221E0EC0231E0EC024177
:1001AC00E0EC0251E0EC0261E0EC0271E0EC028167
:1001BC00E0EC0291E0EC02A1E0EC02B1E0EC02C157
:1001CC00E0EC02D1E0EC02E1E0EC02F1704700BFA0
:1001DC00B0FC0181B0FC0191B0FC01A1B0FC01B1FB
:1001EC00704700BFA0FC0181A0FC0191A0FC01A103
:1001FC00A0FC01B1704700BFEC4600B52DE90050E2
:10020C002DE9FF1F4FF000032DE90C0001A901F0AF
:10021C00ABFCDDF840E012B0704700BFEC4600B517
:10022C002DE900502DE9FF1F4FF000032DE90C00C4
:10023C0001A901F0DBFCDDF840E012B0704700BF13
:10024C00EC4600B52DE900502DE9FF1F4FF00003DF
:10025C002DE90C0001A901F0EBFCDDF840E012B037
:10026C00704700BFEC4600B52DE900502DE9FF1F8B
:10027C004FF000032DE90C0001AB01F0ABFCDDF8F5
:10028C0040E012B0704700BFEC4600B52DE90050BD
:10029C002DE9FF1F4FF000032DE90C0001AA01F01E
:1002AC0025FDDDF840E012B0704700BF844641EAFE
:1002BC00000313F0030349D1403A23D30B680360C6
:1002CC004B6843608B688360CB68C3600B690361C8
:1002DC004B6943618B698361CB69C3610B6A0362B0
:1002EC004B6A43628B6A8362CB6AC3620B6B036398
:1002FC004B6B43638B6B8363CB6BC363403040317D
:10030C00403ADBD230320BD30B6803604B6843604E
:10031C008B688360CB68C36010301031103AF3D215
:10032C000C3205D351F8043B40F8043B043AF9D2A3
:10033C00043208D0D2071CBF11F8013B00F8013B76
:10034C0001D30B8803806046704700BF082A13D383
:10035C008B07B1D010F00303AED0C3F10403D21A53
:10036C00DB071CBF11F8013B00F8013BA4D331F8AB
:10037C00023B20F8023B9FE7043AD9D3013A11F82B
:10038C00013B00F8013BF9D20B7803704B784370BA
:10039C008B788370604670470348044B834202D0CD
:1003AC00034B03B11847704754010020540100203F
:1003BC00000000000548064B1B1AD90F01EBA301E6
:1003CC00491002D0034B03B1184770475401002069
:1003DC00540100200000000010B5064C237843B9EE
:1003EC00FFF7DAFF044B13B10448AFF3008001238D
:1003FC00237010BD5401002000000000BC28000830
:10040C0008B5054B1BB105490548AFF30080BDE8A5
:10041C000840FFF7CFBF00BF0000000058010020CC
:10042C00BC28000838B50C4601F16403C82B08D968
:10043C00642905DC11F1640F03DA6FF0630400E04A
:10044C0064240138032814D8DFE800F0022D588307
:10045C0084B1534D01220221284600F08DFC00226C
:10046C000421284600F088FC002C12DB4D4B1B6845
:10047C005C6338BD04F1804404F58434002202210D
:10048C00204600F079FC00220421204600F074FC88
:10049C00EFE70221284600F075FC0421284600F005
:1004AC0071FC6442E2E784B13D4D012208212846EB
:1004BC0000F062FC00221021284600F05DFC002CAC
:1004CC0012DB384B1B689C63D3E704F1804404F5C2
:1004DC00843400220821204600F04EFC002210211A
:1004EC00204600F049FCC4E70821284600F04AFCED
:1004FC001021284600F046FC6442E2E784B1284D06
:10050C0001222021284600F037FC002240212846F9
:10051C0000F032FC002C12DB224B1B68DC63A8E7DA
:10052C0004F1804404F5843400222021204600F09C
:10053C0023FC00224021204600F01EFC99E72021DC
:10054C00284600F01FFC4021284600F01BFC6442AA
:10055C00E2E77CB101228021114800F00DFC002261
:10056C000121114800F008FC002C0EDB0D4B1B6820
:10057C001C647EE700228021094800F0FDFB00226C
:10058C000121094800F0F8FB73E78021044800F0D2
:10059C00F9FB0121044800F0F5FB6442E6E700BFDB
:1005AC000008014070010020000C014008B53C21FE
:1005BC000120FFF737FF3C210220FFF733FF3C21DE
:1005CC000420FFF72FFF3C210320FFF72BFF08BD72
:1005DC0008B56FF03B010120FFF724FF6FF03B01E2
:1005EC000220FFF71FFF6FF03B010420FFF71AFFFB
:1005FC006FF03B010320FFF715FF08BD08B5002184
:10060C000120FFF70FFF00210220FFF70BFF002155
:10061C000420FFF707FF00210320FFF703FF08BDAD
:10062C002DE9F04389B004AD00240494059406949C
:10063C000794214B9A6942F020029A619A6902F060
:10064C0020020192019A9A6942F004029A619A6915
:10065C0002F004020292029A9A6942F008029A612C
:10066C009B6903F008030393039BDFF85090224629
:10067C00FE21484600F080FB114F224601213846EE
:10068C0000F07AFBFE2304930126059606944FF0A6
:10069C000208CDF81C802946484600F063FA0496FF
:1006AC0005960694CDF81C802946384600F05AFA77
:1006BC0009B0BDE8F08300BF001002400008014003
:1006CC00000C014072B6FEE710B590B006AC2822C3
:1006DC000021204601F0C6FF0023019302930393EF
:1006EC0004930593012206924FF4803307930A92E8
:1006FC0002220D920E934FF4E0130F93204600F05C
:10070C0061FB78B90F23019302210291002303931B
:10071C004FF480620492059301A800F085FD18B98E
:10072C0010B010BDFFF7CEFFFFF7CCFF08B500F0FF
:10073C0077F9FFF7C9FFFFF773FF00F093F801207B
:10074C00FFF734FF4FF47A7000F08EF90120FFF7B9
:10075C003FFF4FF47A7000F087F9FFF74FFF4FF42B
:10076C007A7000F081F9EAE782B00E4B9A6942F098
:10077C0001029A619A6902F001020092009ADA6908
:10078C0042F08052DA61DB6903F080530193019BE4
:10079C00054A536823F0E06343F00073536002B0E2
:1007AC00704700BF0010024000000140FEE7FEE76A
:1007BC00FEE7FEE7FEE770477047704708B500F0AC
:1007CC0041F908BD0120704708B501F0DBFF162385
:1007DC0003604FF0FF3008BD08B54FF0FF31FFF755
:1007EC00F3FFFEE7704700000268094B9A4200D005
:1007FC00704782B003F564439A6942F400629A61CF
:10080C009B6903F400630193019B02B0704700BF26
:10081C00002C014000B587B000230293039304938E
:10082C00059302680D4B9A4202D007B05DF804FBA9
:10083C0003F564439A6942F004029A619B6903F0E0
:10084C0004030193019B4FF47063029302230393FF
:10085C00059302A9024800F085F9E6E7002C014057
:10086C000008014010B596B000241294139414940F
:10087C0015941094119409940A940B940C940D945F
:10088C000E940F942022214601A801F0EBFE3C4867
:10089C003C4B03604723436084606323C360046163
:1008AC004461846100F062FE00284DD14FF4805306
:1008BC00129312A9324800F01AFF002847D1304891
:1008CC0000F080FE002845D100231093119310A94D
:1008DC002B4800F08BFF00283FD1302309930022D6
:1008EC000A920B920C920D920E920F9209A9244827
:1008FC0000F0C2FE002833D132230A93042209A946
:10090C001F4800F0B9FE70BB082209A91C4800F072
:10091C00B3FE58BB0C2209A9194800F0ADFE40BB30
:10092C000023019302930393049305934FF4005215
:10093C000692089301A9124800F08EFFE0B9104806
:10094C00FFF768FF16B010BDFFF7BCFEAEE7FFF770
:10095C00B9FEB4E7FFF7B6FEB6E7FFF7B3FEBCE7A8
:10096C00FFF7B0FEC8E7FFF7ADFECDE7FFF7AAFE35
:10097C00D0E7FFF7A7FED3E7FFF7A4FEDFE700BF42
:10098C0070010020002C0140FFF72CFF0B480C4994
:10099C000C4A002302E0D458C4500433C4188C42CF
:1009AC00F9D3094A094C002301E013600432A24236
:1009BC00FBD301F0EDFEFFF7B9FE704700000020FD
:1009CC0054010020EC290008540100209004002060
:1009DC00FEE7000010B504460E4B1A784FF47A73FC
:1009EC00B3FBF2F30C4A1068B0FBF3F000F0A6F87E
:1009FC0068B90F2C01D901200AE0002221464FF0E2
:100A0C00FF3000F08BF8054B1C60002000E001204B
:100A1C0010BD00BF040000200000002008000020D2
:100A2C0008B5074A136843F010031360032000F065
:100A3C0063F80F20FFF7CEFFFFF796FE002008BDEE
:100A4C0000200240034A1168034B1B780B441360CF
:100A5C00704700BFB801002004000020014B18684B
:100A6C00704700BFB801002038B50446FFF7F6FF09
:100A7C000546B4F1FF3F02D0044B1B781C44FFF732
:100A8C00EDFF401BA042FAD338BD00BF040000208C
:100A9C00002808DB0901C9B200F1604000F5614093
:100AAC0080F80013704700F00F000901C9B2014B28
:100ABC001954704714ED00E000B500F00700C0F1C8
:100ACC00070CBCF1040F28BF4FF0040C031D062BC0
:100ADC000FD9C31E4FF0FF3E0EFA0CF021EA0001B5
:100AEC0099400EFA03FE22EA0E0241EA02005DF87A
:100AFC0004FB0023EEE70000074AD36823F4E0630D
:100B0C001B041B0C000200F4E060034343F0BF63C2
:100B1C0043F40033D360704700ED00E010B5044699
:100B2C00054BD868C0F30220FFF7C6FF01462046EC
:100B3C00FFF7AEFF10BD00BF00ED00E00138B0F1D3
:100B4C00807F0BD24FF0E0235861054AF02182F8E8
:100B5C0023100020986107221A617047012070470A
:100B6C0000ED00E070B582B00024A4469EE07C4D00
:100B7C00AB4214D00CD8A5F58015AB420FD005F5BF
:100B8C007025AB420BD0A5F58015AB421FD106E00A
:100B9C00744DAB4203D005F58035AB4217D18B6851
:100BAC00A3B1012B0DD04261082410E0CC680EE0FB
:100BBC00CC6804340BE0CC68083408E0CC680C3406
:100BCC0005E00261082402E0002400E00424BEF1E8
:100BDC00FF0F37D806464FEA8C0233680F25954035
:100BEC0023EA050304FA02F2134333604B6813F053
:100BFC00805F59D05C4B9A6942F001029A619B6903
:100C0C0003F001030193019B4FEA9C02951C574B87
:100C1C0053F825600CF00305AD000F23AB4026EA1A
:100C2C000306534B984214D003F58063984279D055
:100C3C0003F58063984277D003F58063984206D021
:100C4C00042307E0061DACF108029200C5E703235C
:100C5C0000E00023AB4033430232444D45F82230D0
:100C6C004B6813F4801F61D0424A936843EA0E0329
:100C7C0093604B6813F4001F5ED03E4AD36843EA7E
:100C8C000E03D3604B6813F4003F5BD0394A5368B2
:100C9C0043EA0E0353604B6813F4803F58D0354A37
:100CAC00136843EA0E0313600CF1010C0B6833FA62
:100CBC000CF253D0012202FA0CF203EA020E32EAD1
:100CCC000303F1D14B68122B3FF651AF122B3FF6B9
:100CDC007EAF01A555F823F0AB0B0008B90B00084B
:100CEC00C30B0008D50B0008DB0B0008DB0B00085E
:100CFC00DB0B0008DB0B0008DB0B0008DB0B000830
:100D0C00DB0B0008DB0B0008DB0B0008DB0B00081F
:100D1C00DB0B0008DB0B0008DB0B0008BD0B00082D
:100D2C00C90B0008012395E7022393E7114A936846
:100D3C0023EA0E0393609CE70E4AD36823EA0E0362
:100D4C00D3609FE70B4A536823EA0E035360A2E774
:100D5C00084A136823EA0E031360A5E702B070BDBE
:100D6C000000221000003110001002400000014071
:100D7C0000080140000401400AB1016170470904F8
:100D8C0001617047C36801EA030221EA030141EAE9
:100D9C00024101617047000082B0084B1B68084A91
:100DAC00A2FB03235B0A00FB03F3019300BF019B2F
:100DBC005A1E0192002BF9D102B07047000000209E
:100DCC00D34D6210002800F0F18170B582B004465A
:100DDC00036813F0010F2CD0994B5B6803F00C03E4
:100DEC00042B1DD0964B5B6803F00C03082B12D020
:100DFC006368B3F5803F41D0002B55D103F180439C
:100E0C0003F504331A6822F480321A601A6822F44B
:100E1C0080221A6037E08A4B5B6813F4803FE7D07E
:100E2C00874B1B6813F4003F03D06368002B00F062
:100E3C00BF81236813F0020F75D0814B5B6813F0F0
:100E4C000C0F5FD07E4B5B6803F00C03082B54D067
:100E5C002369002B00F08A807A4B01221A60FFF77D
:100E6C00FDFD0546764B1B6813F0020F75D1FFF79D
:100E7C00F5FD401B0228F5D903209EE1704A13684A
:100E8C0043F480331360636843B3FFF7E7FD054613
:100E9C006B4B1B6813F4003FCBD1FFF7DFFD401BFE
:100EAC006428F5D9032088E1B3F5A02F09D0644B51
:100EBC001A6822F480321A601A6822F480221A60AE
:100ECC00E1E703F18043A3F53C331A6842F4802236
:100EDC001A601A6842F480321A60D4E7FFF7BEFD3C
:100EEC000546574B1B6813F4003FA2D0FFF7B6FD25
:100EFC00401B6428F5D903205FE1514B5B6813F468
:100F0C00803FA5D14E4B1B6813F0020F03D0236911
:100F1C00012B40F04F814A4A136823F0F8036169B2
:100F2C0043EAC1031360236813F0080F33D0A3699D
:100F3C00002B5CD0434B0122C3F88024FFF78EFDBD
:100F4C0005463F4B5B6A13F0020F21D1FFF786FD7C
:100F5C00401B0228F5D903202FE1394A136823F0EE
:100F6C00F803616943EAC1031360DCE7354B0022E7
:100F7C001A60FFF773FD0546314B1B6813F0020F27
:100F8C00D1D0FFF76BFD401B0228F5D9032014E1EB
:100F9C000120FFF701FF236813F0040F00F0968087
:100FAC00274BDB6913F0805F34D1254BDA6942F0B3
:100FBC008052DA61DB6903F080530193019B0125B8
:100FCC00214B1B6813F4807F26D0E368012B3DD0A6
:100FDC00002B53D103F1804303F504331A6A22F03A
:100FEC0001021A621A6A22F004021A6233E0154BEB
:100FFC000022C3F88024FFF731FD0546104B5B6AD5
:10100C0013F0020FC7D0FFF729FD401B0228F5D9BA
:10101C000320D2E00025D3E70B4A136843F4807316
:10102C001360FFF71BFD0646074B1B6813F4807F0C
:10103C00CBD1FFF713FD801B6428F5D90320BCE04E
:10104C000010024000004242007000405F4A136AE8
:10105C0043F001031362E36833B3FFF7FFFC06466A
:10106C005A4B1B6A13F0020F2FD1FFF7F7FC801BB2
:10107C0041F288339842F3D903209EE0052B09D026
:10108C00524B1A6A22F001021A621A6A22F0040206
:10109C001A62E0E74D4B1A6A42F004021A621A6AAD
:1010AC0042F001021A62D6E7FFF7D8FC0646474B1E
:1010BC001B6A13F0020F08D0FFF7D0FC801B41F223
:1010CC0088339842F3D9032077E0E5B9E369002B24
:1010DC0072D03E4A526802F00C02082A56D0022BFB
:1010EC0017D03B4B00221A66FFF7B8FC0446374B6F
:1010FC001B6813F0007F47D0FFF7B0FC001B0228E1
:10110C00F5D9032059E0314AD36923F08053D361D8
:10111C00DCE72F4B00221A66FFF7A0FC05462B4B91
:10112C001B6813F0007F06D0FFF798FC401B0228C9
:10113C00F5D9032041E0236AB3F5803F1AD0234947
:10114C004B6823F47413226A606A024313434B60A6
:10115C001F4B01221A66FFF781FC04461B4B1B68D0
:10116C0013F0007F0ED1FFF779FC001B0228F5D994
:10117C00032022E0154A536823F40033A1680B4383
:10118C005360DCE7002018E0002016E0012B16D09D
:10119C000E4B5B6803F48031226A914211D103F447
:1011AC007013626A93420ED1002006E00120704752
:1011BC00012002E0012000E0002002B070BD0120FF
:1011CC00FBE70120F9E70120F7E700BF0010024020
:1011DC00000042420F4B5B6803F00C02082A01D05E
:1011EC000D487047C3F383420C49885C13F4803F6D
:1011FC000BD0084B5B68C3F34043094AD35C064AE7
:10120C0002FB00F0B0FBF3F07047064B03FB00F061
:10121C00704700BF0010024000127A00E828000856
:10122C00E428000800093D00002800F0A08070B5FB
:10123C000D460446524B1B6803F007038B420BD23E
:10124C004F4A136823F007030B431360136803F032
:10125C0007038B4240F08D80236813F0020F17D0E8
:10126C0013F0040F04D0474A536843F4E06353600F
:10127C00236813F0080F04D0424A536843F46053B8
:10128C005360404A536823F0F003A1680B4353604A
:10129C00236813F0010F31D06368012B20D0022B8F
:1012AC0025D0384A126812F0020F64D035494A68CA
:1012BC0022F0030213434B60FFF7D0FB0646314B81
:1012CC005B6803F00C036268B3EB820F16D0FFF778
:1012DC00C5FB801B41F288339842F0D9032045E0CE
:1012EC00284A126812F4003FE0D101203EE0254A62
:1012FC00126812F0007FD9D1012037E0204B1B6817
:10130C0003F00703AB420AD91D4A136823F0070305
:10131C002B431360136803F00703AB422DD12368F2
:10132C0013F0040F06D0174A536823F4E063E16806
:10133C000B435360236813F0080F07D0114A53680E
:10134C0023F46053216943EAC1035360FFF742FF62
:10135C000C4B5B68C3F303130B4AD35CD8400B4BA9
:10136C0018600B4B1868FFF735FB002070BD01208F
:10137C0070470120FAE70120F8E70120F6E700BFEB
:10138C000020024000100240D42800080000002079
:10139C000800002030B4026A036A23F001030362E0
:1013AC004568836923F073030C681C4322F0020226
:1013BC008B6813430B4A904206D0456084614A689F
:1013CC004263036230BC704723F00803CA681A43B7
:1013DC0022F0040325F440754A692A438D691543AC
:1013EC00EBE700BF002C014030B4036A026A22F420
:1013FC00807202624468C26922F073020D68154360
:10140C0023F400738A6843EA02230D4A904206D003
:10141C004460C5614A68C263036230BC704723F400
:10142C000063CA6843EA022323F4806324F4405423
:10143C004A6944EA02148A6944EA0214E8E700BFE4
:10144C00002C014030B4036A026A22F4805202621A
:10145C004468C26922F4E6420D6842EA052223F48C
:10146C0000538D6843EA0533074DA84206D044600B
:10147C00C2614A680264036230BC704724F4804441
:10148C004D6944EA8514F2E7002C014010B4036A5C
:10149C00046A24F001040462846924F0F00C4CEA20
:1014AC00021223F00A030B438261036210BC7047E3
:1014BC0010B4036A046A24F010040462846924F4EE
:1014CC00704C4CEA023223F0A00343EA0113826110
:1014DC00036210BC7047836823F070030B4343F026
:1014EC00070383607047704703681F4A90420AD015
:1014FC00B0F1804F07D0A2F59432904203D002F5A0
:10150C008062904203D123F070034A681343164A59
:10151C0090420AD0B0F1804F07D0A2F5943290429D
:10152C0003D002F58062904203D123F44073CA6861
:10153C00134323F080034A69134303608B68C3622F
:10154C000B688362084B98420AD0012343610369FC
:10155C0013F0010F03D0036923F0010303617047FB
:10156C000B690363F1E700BF002C014040B310B5D9
:10157C00044690F83D30F3B1022384F83D30214607
:10158C0051F8040BFFF7B0FF012384F8463084F8C0
:10159C003E3084F83F3084F8403084F8413084F891
:1015AC00423084F8433084F8443084F8453084F871
:1015BC003D30002010BD80F83C30FFF715F9DBE71B
:1015CC000120704740B310B5044690F83D30F3B19C
:1015DC00022384F83D30214651F8040BFFF784FFB9
:1015EC00012384F8463084F83E3084F83F3084F888
:1015FC00403084F8413084F8423084F8433084F829
:10160C00443084F8453084F83D30002010BD80F81B
:10161C003C30FFF768FFDBE70120704730B4036A0A
:10162C00026A22F0100202624468826922F4E642E5
:10163C000D6842EA052223F020038D6843EA051366
:10164C000C4DA84206D0446082614A6882630362F2
:10165C0030BC704723F08003CD6843EA051323F0B8
:10166C00400324F440644D6944EA85048D6944EADE
:10167C008504E8E7002C014090F83C30012B28D081
:10168C0010B50446012380F83C300C2A1CD8DFE846
:10169C0002F0071B1B1B0C1B1B1B111B1B1B16001F
:1016AC000068FFF777FE00200FE00068FFF7B6FF39
:1016BC0000200AE00068FFF797FE002005E00068B4
:1016CC00FFF7C0FE002000E00120002384F83C302E
:1016DC0010BD0220704710B4846824F47F4C42EA99
:1016EC0003220A4342EA0C02826010BC704790F855
:1016FC003C30012B78D010B50446012380F83C30E7
:10170C00022380F83D300268936823F47F4323F072
:10171C00770393600B68602B4CD023D8402B54D0AC
:10172C0011D8202B03D00AD80BB1102B05D1194698
:10173C002068FFF7D0FE002028E0012026E0302BA7
:10174C00F5D0012022E0502B0AD1CA684968006804
:10175C00FFF79CFE50212068FFF7BDFE002015E02E
:10176C00012013E0B3F5805F3AD0B3F5005F14D0DD
:10177C00702B37D1CB684A6889680068FFF7ABFFDC
:10178C002268936843F0770393600020012384F868
:10179C003D30002384F83C3010BDCB684A68896822
:1017AC000068FFF798FF2268936843F480439360C6
:1017BC000020EBE7CA6849680068FFF779FE6021F2
:1017CC002068FFF788FE0020E0E7CA6849680068D7
:1017DC00FFF75CFE40212068FFF77DFE0020D5E777
:1017EC000020D3E70120D1E70220704790F83C207D
:1017FC00012A2CD010B40346012280F83C2002228E
:10180C0080F83D2002685068946820F0700C0868DD
:10181C0040EA0C0050601A680E4882420AD0B2F1BD
:10182C00804F07D0A0F59430824203D000F5806041
:10183C00824204D124F08004496821439160012242
:10184C0083F83D20002083F83C0010BC7047022038
:10185C00704700BF002C0140024690F83C30012B31
:10186C0021D0012380F83C30CB6823F44073886886
:10187C00034323F480634868034323F4006308683C
:10188C00034323F480530869034323F4005348694A
:10189C00034323F48043C9690B4311684B64002054
:1018AC0082F83C00704702207047000003685A0021
:1018BC004CBF43F0004323F000431844704700BF73
:1018CC002DE9F04741B301F1FF380546164647466E
:1018DC000024E11901EBD171491005EBC10A504606
:1018EC00FFF7E4FF884503464FEAC1090ED009F122
:1018FC000800B34228440BD8FFF7D8FF0138B04298
:10190C0001F10104E5D35046BDE8F087B042FAD9A5
:10191C008C4201D04F1EDCE74FF0000A5046BDE868
:10192C00F08700BF012806D0022802D028B904484D
:10193C00704704487047044870470020704700BF48
:10194C002D2000083D2000083520000830B5224B22
:10195C00044683B08D1E3BB3284601A9AFF300802B
:10196C00E8B101992A46FFF7ABFF0146B8B1FFF782
:10197C009DFF4B68A064012B2BD0002B26DB081D90
:10198C00FFF794FF002323650368E064002B12DB50
:10199C00FFF78CFF03460020236103B030BD00230A
:1019AC000920236103B030BD0C4B0D491846C91AF0
:1019BC00C9100191D6E7C3F30360FFF7B3FF031E11
:1019CC000CBF09200020236103B030BD0123081D8A
:1019DC00D9E700230520DFE70000000028290008D4
:1019EC00E0290008036810B5DA07044606D49B0703
:1019FC0000F1500009D5FEF797FB2368590709D56C
:101A0C001A070ED5DB0613D510BDFEF785FB236830
:101A1C005907F5D404F1D800FEF78EFB23681A079A
:101A2C00F0D404F5AC70FEF78FFB2368DB06EBD427
:101A3C0004F5EC70BDE81040FEF7CABB0346006825
:101A4C0000B11844704700BF704700BF70B5044622
:101A5C000E462046316CFFF779FF054698B9D6F84B
:101A6C0040C03246214601202369C4F814C098476F
:101A7C000828EED0072806D12846316CFFF7E4FF82
:101A8C00301DFEF73DFB00F0E5FD00BF2DE9F04FEA
:101A9C004FF0000EADF5777D0DF10C0C0F1DD0F84D
:101AAC000C90D0F818A0064614460FCFACE80F00E7
:101ABC000FCFACE80F000FCFACE80F0097E80F008A
:101ACC0002AD8CE80F000DF5F878C5F800E021E0C8
:101ADC002B6C4FF4F472294673614046FEF7E6FB1B
:101AEC00424631463369584698472146D8F8384023
:101AFC000746AC64012033463246CDE9005AC8474C
:101B0C00044618BB4FF4F47241462846FEF7CEFB50
:101B1C00082F19D13046296CFFF718FF09340746F6
:101B2C005FFA84FB0028D3D0A96B3346A9643246F4
:101B3C000120CDE9005A4BF01001C84730B93846A6
:101B4C000DF5777DBDE8F08F072F05D009273846B6
:101B5C000DF5777DBDE8F08F2046296CFFF774FFFB
:101B6C0003A8FEF7CDFA00BFF0B54FF0FF3ECB6BEC
:101B7C00FBB001AC0B6401F1040C0F460546BCE84C
:101B8C000F000FC4BCE80F000FC4BCE80F000FC45B
:101B9C009CE80F006E4684E80F00CDF800E006E0EC
:101BAC00324629462B6998470828044608D128460E
:101BBC00316CFFF7CBFE0028F2D009207BB0F0BDD2
:101BCC003046FFF70FFF062CF7D139462846FFF7B2
:101BDC003DFF00BF10B414468461DC6BC160002271
:101BEC001C64194610BCFFF751BF00BF70B54369A8
:101BFC00C6680B64AEB90A46036904460D46014635
:101C0C0002209847072805D008280FD129462046DE
:101C1C00FFF71CFF3046296CFFF716FF281DFEF757
:101C2C006FFA0122FFF732FF00F014FD00F012FDF5
:101C3C00C26808B542B1BDE80840D1F83CC00022EA
:101C4C00C1F840C0FFF722BFFFF78EFF092008BD87
:101C5C00052915D8DFE801F00A0314030305012058
:101C6C007047436C009A00201360704743B90F2AE9
:101C7C0006D800EB82025368009A0020136070476C
:101C8C0002207047002300B585B00A4603A90091D5
:101C9C001946FFF7DDFF039805B05DF804FB00BFA4
:101CAC00052915D8DFE801F00A0314030305012008
:101CBC007047009B1B6843640020704743B90F2A90
:101CCC0006D8009B00EB82021B6800205360704713
:101CDC0002207047002310B584B003AC039200942B
:101CEC000A461946FFF7DCFF04B010BD2DE9F041A0
:101CFC004FF0FF38D36BADF5107D0DF15C0E136416
:101D0C0002F1040C07460E46BCE80F00AEE80F00CB
:101D1C00BCE80F00AEE80F00BCE80F00AEE80F0007
:101D2C009CE80F0016AC6D468EE80F00C4F80080DE
:101D3C0012E00C2120462A46FFF7CCFF3146204604
:101D4C00B84778B92246294608202B6998470528B8
:101D5C00804609D0092805D02846216CFFF7F6FDEE
:101D6C000028E6D04FF009082046FFF73BFE40461E
:101D7C000DF5107DBDE8F0812DE9F04F1646CA6CCB
:101D8C000D4652F8041B89B000F0030C0692E3B127
:101D9C0002240F0C8DF81D700904FFB2059102EBA3
:101DAC008702296DBCF1020F08BFAA6B11F0010864
:101DBC008DF81C400FD0304605A900F0CBFA002856
:101DCC0039D1082009B0BDE8F08F09020324059130
:101DDC008DF81D30E5E71768002FECD0E3469A46E6
:101DEC0000F008010191CDF80880BAF1020F26D05D
:101DFC001788548802F10409AA6C24F001030F21FE
:101E0C00304603EB0208FFF73DFF804515D827F05D
:101E1C00010202EB0803834294BF002301236400F8
:101E2C0004F0020407F001072743012F0BD0022F07
:101E3C0050D0002F45D00920C4E70023EFE75468A9
:101E4C0002F10809D8E7BBF1000F73D1CBB1D9F877
:101E5C000430D9F80020991C4FEAD272EBD005F16E
:101E6C0058040133049400F0CD8009F10400FFF70D
:101E7C00E5FD04AB01462846AFF30080002840F096
:101E8C00978009F108021768002FAED1304605A9DA
:101E9C00DDF8088000F05EFA0028CCD1B8F1000F14
:101EAC008FD00F213046FFF7EDFE0E210246304653
:101EBC00FFF710FF0F213046584AFFF70BFF0720A2
:101ECC0080E7BBF1000F02D0002B40F0888009F1B5
:101EDC000402D8E7D9F8004024F00048BBF1000F09
:101EEC000FD12BB1019B002B3CD0B8F1000F39D096
:101EFC00002C01DA09F1040908F1010209EB820254
:101F0C00C1E70D213046FFF7BDFE2F6A8742EFD1A6
:101F1C00AB6A9945ECD100240423C5E90B434B442F
:101F2C00C5F828806B63D9F80030A34271DB01231C
:101F3C000293E1E70D213046FFF7A4FE2C6A8442A0
:101F4C009FD1AB6A99459CD14846FFF7AFFC0F2156
:101F5C0002463046FFF7BEFE2A4600213046FFF708
:101F6C00B9FEACE705F15803CDF80CB00024B3462C
:101F7C0009F104071E460BE038460496FFF75EFD98
:101F8C000022014604AB2846AFF30080043700BBA7
:101F9C00444504F10104EFD10D215846FFF772FEC0
:101FAC000246049B0620C5E90823C5F8289009E7DA
:101FBC0004460D213046FFF765FE049E022C08BF37
:101FCC00EE62286208BF05F12C060620C5E90969F6
:101FDC00F8E65E46D9F80040DDF80CB088E74846D4
:101FEC00FFF764FC09F104020446AA632846AFF328
:101FFC00008000283FF41FAF22460F213046FFF728
:10200C0069FE5CE730460D21FFF73CFE2646286250
:10201C00DBE708F1010209EB820096E70000000003
:10202C000023FFF7A9BE00BF0123FFF7A5BE00BF29
:10203C000223FFF7A1BE00BF2DE9F041054614466F
:10204C00C4B0052908D8DFE801F0162D076E950BF2
:10205C003A19102A40F2B480022044B0BDE8F08155
:10206C00836B002CF8D153F8042B4264836300205B
:10207C0044B0BDE8F081002BEED14FF0010E816B26
:10208C002A1DA0B20EFA03FC1CEA000F1CBF51F86B
:10209C00046B42F823600133102BF3D1A004E6D477
:1020AC00A963E4E7012B4FEA1447A4B2D0D0052B67
:1020BC00D2D107EB0408B8F1200FCDD80F2F40F286
:1020CC00BC80002CD3D00268A046510700F11A81C5
:1020DC00019302AC2046FEF733F8D5F838C0019BCB
:1020EC00102F39464FEA480838BF102108F1FF3845
:1020FC004246604604EBC101843950F8046B013A46
:10210C0041F8046F561CF8D10CF1040C012B0CEBAC
:10211C00880200F0D6800F2FAA6340F2FB80204685
:10212C00FEF70AF8A3E7032B96D11FFA84F808EB05
:10213C001443102B4FEA14448ED803681E0700F189
:10214C00A38022AE3046FEF721F84FEA4801AF6B70
:10215C0006EBC4024B1E41B1B81A1158013B5C1C72
:10216C0042F8041BF9D107EBC8073046AF63FDF703
:10217C00EBFF7CE7002B7FF46FAF102C3FF66CAFBE
:10218C000368D80678D422AE3046FEF72BF8012728
:10219C0000233046A96B07FA03F2224203F1010334
:1021AC0005D00A4652F804CB1146C0F800C0042BE7
:1021BC0000F10400EFD13046A963FEF709F856E7A9
:1021CC00102F3FF449AF0268D10708D5284622F0FA
:1021DC00030240F8502B0193FDF7A2FF019B22AEA6
:1021EC0030460193FDF79CFFD5F838C0002C6AD01F
:1021FC004FF00008019B4FEA440E0EF1FF3E724671
:10220C00604606EBC701043950F8044B013A41F81B
:10221C00044F541CF8D10CF1040C0CEB8E0CB8F1DF
:10222C00000F39D1012B4ED00F2FC5F838C03FF617
:10223C001EAF3046FDF778FF19E70268B8F1100FB2
:10224C0002F001012AD851B1284622F0010242F0D5
:10225C00020240F8502B0193FDF76AFF019B22AE5E
:10226C0030460193FDF764FF019B002CE1D04FF049
:10227C000008D5F838C0BEE723F010032B6005F535
:10228C00EC70FDF7AFFF7EE723F00803036000F569
:10229C00AC70FDF77BFF54E702AC21E7D1B95607D0
:1022AC0026D422AE30460193FDF742FF02A8FDF77B
:1022BC0047FFA8F11008D5F838C0019BC7F11004EE
:1022CC0099E7944622AE0CF104033046AB63FDF75C
:1022DC0023FFCCE622F0010242F0020240F8502B20
:1022EC000193FDF725FF2A68019B12F0040FD8D04B
:1022FC00284622F0040240F8D82B0193FDF720FF6A
:10230C00019BCEE722F0040240F8D82B0193FDF795
:10231C0017FFDEE622A8FDF707FF00E7027A034667
:10232C007AB9427AA2B14FF0030C4168013A427279
:10233C0008680A1D5A60020283F808C0000E1A6071
:10234C0070470068013A1A7202021A60000E704758
:10235C00B02070472DE9F043002706460D4685B0A6
:10236C002846FFF7DBFFB028044600F01781030670
:10237C005FD500F0F003A02B1DD033D8802B00F0DC
:10238C008880902B2AD100F00D030D2B26D0002332
:10239C000DF10808194600F00F02CDF80080304608
:1023AC00FFF756FC00230D2219463046CDF800806D
:1023BC00FFF776FCD4E7C3434FF47F6203F00703C7
:1023CC001A41010702F47F6201D542F480420023D6
:1023DC0030461946FFF730FE0028C1D0092005B061
:1023EC00BDE8F083B02B69D0C02B40D1C62800F0DB
:1023FC00C180C72800F0D58000F0F803C02B00F096
:10240C00E280C82800F0ED80C928E7D12846FFF704
:10241C0085FF052301210446220304F00F0402F476
:10242C0070220C4430462243FFF706FE002897D05A
:10243C00D4E78300DBB203F1040800230DF1080993
:10244C0019460D223046CDF80090FFF701FC002311
:10245C00029A60064CBFA2EB08024244029230463C
:10246C000D221946CDF80090FFF71AFC78E700F022
:10247C00F803D02BB2D100F0070201320523012161
:10248C00304642F40022FFF7D7FD00283FF468AF36
:10249C00A4E72846FFF742FF24022043B0F5004F83
:1024AC009CD00023040119463046A2B2FFF7C4FDAC
:1024BC00002893D1C4F3C030074351E7A0F1B10316
:1024CC00042B00F2B380DFE803F04B1D160C030065
:1024DC00002303AA009230460D221946FFF7B8FBE1
:1024EC003EE70023052130461A46FFF7A5FD0028DC
:1024FC003FF436AF72E72846FFF710FF012304467E
:10250C00194689E700230DF108090D2219463046BA
:10251C00CDF80090FFF79CFB2846FFF7FFFE020664
:10252C004FF00208029C0CD500F07F0000FA08F076
:10253C00044428460294FFF7F1FE030608F107084D
:10254C00F2D4002300FA08F004F501742044029040
:10255C000D2230461946CDF80090FFF7A1FBFFE69F
:10256C002846FFF7DBFE431EDBB20E2B02467FF63E
:10257C002EAF33E72846FFF7D1FE04460323220390
:10258C0004F00F0402F47022013419463046224341
:10259C00FFF752FD00283FF4E3AE1FE7B7B300206E
:1025AC001DE72846FFF7BAFE431EDBB20E2B024690
:1025BC003FF614AF002304213046FFF73DFD002801
:1025CC003FF4CEAE0AE7032300F00F02013230468F
:1025DC00194642F42022FFF72FFD00283FF4C0AE2D
:1025EC00FCE62846FFF79AFE0246012102F0F004B1
:1025FC0002F00F0210340A440523304642EA04323A
:10260C00FFF71AFD00283FF4ABAEE7E602AC3B4601
:10261C0039460E2230460094FFF71AFB0F223B4638
:10262C00394630460094FFF73BFBB8E700F0FC035B
:10263C00B42B3FF4D3AE012300F007021A4430460A
:10264C00194642F40022FFF7F7FC00283FF488AE4D
:10265C00C4E600BF062008B500F052F80120FEF7D2
:10266C00BBF800BF830730B546D08446841805E01C
:10267C00634603F8011B9D0703D09C46A445F7D184
:10268C0030BD013A0244A2EB0C02032A29D9CCB288
:10269C0004EB04240F2A04EB04442FD9A2F1100CF0
:1026AC002CF00F0C03F11005AC44C3E90044C3E952
:1026BC00024410336345F8D112F00C0F02F00F0EE8
:1026CC0018D01A462EF0030C9C44AEF1040542F8C7
:1026DC00044B6245FBD125F0030404330EF00302D6
:1026EC002344002ACCD0C9B21A4403F8011B9342EC
:1026FC00FBD130BD7246F4E70346C6E79646E0E7E9
:10270C0038B5144B1F281D681ED8D5F8382104463F
:10271C0062B152F820304BB1012B05D0591C0FD0AF
:10272C00002142F820109847002038BD284600F0C0
:10273C0027F8224601462846BDE8384000F00CB880
:10274C00162301202B6038BD16234FF0FF302B6071
:10275C0038BD00BF0C00002070B50026074D0446A4
:10276C00084611462E60FEF72FF8431C00D070BDB2
:10277C002B68002BFBD0236070BD00BFF40200203F
:10278C00FEF720B8014B1868704700BF0C00002002
:10279C0070B50F4B0F4DAB42A3EB050607D00024D1
:1027AC00B61055F8043B01349847A642F9D800F00E
:1027BC007FF8094D094B5E1BAB424FEAA60606D0CB
:1027CC00002455F8043B01349847A642F9D870BD53
:1027DC00E0290008E0290008E0290008E8290008A1
:1027EC00704700BF704700BF024B13B1024800F0A6
:1027FC0005B87047000000001528000800230146AA
:10280C001A46184600F014B838B5074D074C2C1B67
:10281C00A41005D0013C55F8043D9847002CF9D183
:10282C00BDE8384000F04AB8EC290008E829000857
:10283C002DE9F8431B4D0646286898460F469146ED
:10284C00FFF7CEFF184B1C681CB3286865681F2D5A
:10285C0022DC4EB96B1C0235636044F82570FFF71F
:10286C00C1FF0020BDE8F883012304EB8501C1F80A
:10287C008890D4F88821AB401A43022EC4F88821E2
:10288C00C1F80881E6D1D4F88C211A43C4F88C2104
:10289C00E0E7064C1C60D8E7FFF7A4FF4FF0FF30D1
:1028AC00E0E700BF50010020FC02002000030020E4
:1028BC00F8B500BFF8BC08BC9E467047F8B500BF21
:0828CC00F8BC08BC9E467047F1
:1028D40000000000000000000102030406070809CC
:1028E4000102000002030405060708090A0B0C0D87
:0428F4000E0F1010A3
:1028F80008B10181B0B000840000000008B1018176
:10290800B0B000840000000008B10181B0B00084BC
:102918000000000008B10181B0B000840000000090
:1029280090D9FF7F0100000000DBFF7FA908B1807C
:1029380080DCFF7FBCFFFF7F9CDCFF7FC0FFFF7F49
:10294800C0DCFF7FC4FFFF7FDCDCFF7F01000000ED
:1029580000F0FF7FB0A9028090F0FF7FB0B0A880A0
:10296800E0F0FF7F01000000E8F0FF7FB0B0AA8030
:1029780020F1FF7FAF76B280F4F1FF7FAB3F3A8062
:1029880058F2FF7F0100000068F2FF7FB0B0AA8014
:10299800A4F2FF7F80FFFF7FBCF2FF7F01000000F1
:1029A80050F3FF7FAC0FB280D4F3FF7FB0AF088045
:1029B80074F6FF7F0100000084F6FF7FAC3F0380C0
:1029C80060F9FF7F0100000090F9FF7FB0AD04803F
:0829D80088FCFF7F01000000F4
:0829E000F52700080D040008B2
:0429E800E5030008FB
:1029EC0000127A000100000010000000100000200E
:1029FC0000000000BC010020240200208C020020FA
:102A0C0000000000000000000000000000000000BA
:102A1C0000000000000000000000000000000000AA
:102A2C00000000000000000000000000000000009A
:102A3C00000000000000000000000000000000008A
:102A4C00000000000000000000000000000000007A
:102A5C00000000000000000000000000000000006A
:102A6C00000000000000000000000000000000005A
:102A7C00000000000000000000000000000000004A
:102A8C000000000000000000010000000000000039
:102A9C000E33CDAB34126DE6ECDE05000B000000FE
:102AAC00000000000000000000000000000000001A
:102ABC00000000000000000000000000000000000A
:102ACC0000000000000000000000000000000000FA
:102ADC0000000000000000000000000000000000EA
:102AEC0000000000000000000000000000000000DA
:102AFC0000000000000000000000000000000000CA
:102B0C0000000000000000000000000000000000B9
:102B1C0000000000000000000000000000000000A9
:102B2C000000000000000000000000000000000099
:042B3C00F80200207B
:040000050800099551
:00000001FF
